{
  "_format": "hh-sol-artifact-1",
  "contractName": "UglartNFT",
  "sourceName": "contracts/UglartNFT.sol",
  "abi": [
    {
      "inputs": [],
      "stateMutability": "nonpayable",
      "type": "constructor"
    },
    {
      "anonymous": false,
      "inputs": [
        {
          "indexed": true,
          "internalType": "address",
          "name": "owner",
          "type": "address"
        },
        {
          "indexed": true,
          "internalType": "address",
          "name": "approved",
          "type": "address"
        },
        {
          "indexed": true,
          "internalType": "uint256",
          "name": "tokenId",
          "type": "uint256"
        }
      ],
      "name": "Approval",
      "type": "event"
    },
    {
      "anonymous": false,
      "inputs": [
        {
          "indexed": true,
          "internalType": "address",
          "name": "owner",
          "type": "address"
        },
        {
          "indexed": true,
          "internalType": "address",
          "name": "operator",
          "type": "address"
        },
        {
          "indexed": false,
          "internalType": "bool",
          "name": "approved",
          "type": "bool"
        }
      ],
      "name": "ApprovalForAll",
      "type": "event"
    },
    {
      "anonymous": false,
      "inputs": [
        {
          "indexed": false,
          "internalType": "address",
          "name": "sender",
          "type": "address"
        },
        {
          "indexed": false,
          "internalType": "uint256",
          "name": "tokenId",
          "type": "uint256"
        }
      ],
      "name": "NewUglartNFTMinted",
      "type": "event"
    },
    {
      "anonymous": false,
      "inputs": [
        {
          "indexed": true,
          "internalType": "address",
          "name": "from",
          "type": "address"
        },
        {
          "indexed": true,
          "internalType": "address",
          "name": "to",
          "type": "address"
        },
        {
          "indexed": true,
          "internalType": "uint256",
          "name": "tokenId",
          "type": "uint256"
        }
      ],
      "name": "Transfer",
      "type": "event"
    },
    {
      "inputs": [
        {
          "internalType": "address",
          "name": "to",
          "type": "address"
        },
        {
          "internalType": "uint256",
          "name": "tokenId",
          "type": "uint256"
        }
      ],
      "name": "approve",
      "outputs": [],
      "stateMutability": "nonpayable",
      "type": "function"
    },
    {
      "inputs": [
        {
          "internalType": "address",
          "name": "owner",
          "type": "address"
        }
      ],
      "name": "balanceOf",
      "outputs": [
        {
          "internalType": "uint256",
          "name": "",
          "type": "uint256"
        }
      ],
      "stateMutability": "view",
      "type": "function"
    },
    {
      "inputs": [
        {
          "internalType": "uint256",
          "name": "tokenId",
          "type": "uint256"
        }
      ],
      "name": "getApproved",
      "outputs": [
        {
          "internalType": "address",
          "name": "",
          "type": "address"
        }
      ],
      "stateMutability": "view",
      "type": "function"
    },
    {
      "inputs": [
        {
          "internalType": "address",
          "name": "owner",
          "type": "address"
        },
        {
          "internalType": "address",
          "name": "operator",
          "type": "address"
        }
      ],
      "name": "isApprovedForAll",
      "outputs": [
        {
          "internalType": "bool",
          "name": "",
          "type": "bool"
        }
      ],
      "stateMutability": "view",
      "type": "function"
    },
    {
      "inputs": [],
      "name": "makeUglartNFT",
      "outputs": [],
      "stateMutability": "nonpayable",
      "type": "function"
    },
    {
      "inputs": [],
      "name": "name",
      "outputs": [
        {
          "internalType": "string",
          "name": "",
          "type": "string"
        }
      ],
      "stateMutability": "view",
      "type": "function"
    },
    {
      "inputs": [
        {
          "internalType": "uint256",
          "name": "tokenId",
          "type": "uint256"
        }
      ],
      "name": "ownerOf",
      "outputs": [
        {
          "internalType": "address",
          "name": "",
          "type": "address"
        }
      ],
      "stateMutability": "view",
      "type": "function"
    },
    {
      "inputs": [
        {
          "internalType": "uint256",
          "name": "tokenId",
          "type": "uint256"
        }
      ],
      "name": "pickRandomColor",
      "outputs": [
        {
          "internalType": "string",
          "name": "",
          "type": "string"
        }
      ],
      "stateMutability": "view",
      "type": "function"
    },
    {
      "inputs": [
        {
          "internalType": "uint256",
          "name": "tokenId",
          "type": "uint256"
        }
      ],
      "name": "pickRandomFirstWord",
      "outputs": [
        {
          "internalType": "string",
          "name": "",
          "type": "string"
        }
      ],
      "stateMutability": "view",
      "type": "function"
    },
    {
      "inputs": [
        {
          "internalType": "uint256",
          "name": "tokenId",
          "type": "uint256"
        }
      ],
      "name": "pickRandomSecondWord",
      "outputs": [
        {
          "internalType": "string",
          "name": "",
          "type": "string"
        }
      ],
      "stateMutability": "view",
      "type": "function"
    },
    {
      "inputs": [
        {
          "internalType": "uint256",
          "name": "tokenId",
          "type": "uint256"
        }
      ],
      "name": "pickRandomThirdWord",
      "outputs": [
        {
          "internalType": "string",
          "name": "",
          "type": "string"
        }
      ],
      "stateMutability": "view",
      "type": "function"
    },
    {
      "inputs": [
        {
          "internalType": "address",
          "name": "from",
          "type": "address"
        },
        {
          "internalType": "address",
          "name": "to",
          "type": "address"
        },
        {
          "internalType": "uint256",
          "name": "tokenId",
          "type": "uint256"
        }
      ],
      "name": "safeTransferFrom",
      "outputs": [],
      "stateMutability": "nonpayable",
      "type": "function"
    },
    {
      "inputs": [
        {
          "internalType": "address",
          "name": "from",
          "type": "address"
        },
        {
          "internalType": "address",
          "name": "to",
          "type": "address"
        },
        {
          "internalType": "uint256",
          "name": "tokenId",
          "type": "uint256"
        },
        {
          "internalType": "bytes",
          "name": "data",
          "type": "bytes"
        }
      ],
      "name": "safeTransferFrom",
      "outputs": [],
      "stateMutability": "nonpayable",
      "type": "function"
    },
    {
      "inputs": [
        {
          "internalType": "address",
          "name": "operator",
          "type": "address"
        },
        {
          "internalType": "bool",
          "name": "approved",
          "type": "bool"
        }
      ],
      "name": "setApprovalForAll",
      "outputs": [],
      "stateMutability": "nonpayable",
      "type": "function"
    },
    {
      "inputs": [
        {
          "internalType": "bytes4",
          "name": "interfaceId",
          "type": "bytes4"
        }
      ],
      "name": "supportsInterface",
      "outputs": [
        {
          "internalType": "bool",
          "name": "",
          "type": "bool"
        }
      ],
      "stateMutability": "view",
      "type": "function"
    },
    {
      "inputs": [],
      "name": "symbol",
      "outputs": [
        {
          "internalType": "string",
          "name": "",
          "type": "string"
        }
      ],
      "stateMutability": "view",
      "type": "function"
    },
    {
      "inputs": [
        {
          "internalType": "uint256",
          "name": "tokenId",
          "type": "uint256"
        }
      ],
      "name": "tokenURI",
      "outputs": [
        {
          "internalType": "string",
          "name": "",
          "type": "string"
        }
      ],
      "stateMutability": "view",
      "type": "function"
    },
    {
      "inputs": [
        {
          "internalType": "address",
          "name": "from",
          "type": "address"
        },
        {
          "internalType": "address",
          "name": "to",
          "type": "address"
        },
        {
          "internalType": "uint256",
          "name": "tokenId",
          "type": "uint256"
        }
      ],
      "name": "transferFrom",
      "outputs": [],
      "stateMutability": "nonpayable",
      "type": "function"
    }
  ],
  "bytecode": "0x608060405260405180610100016040528060d381526020016200469660d39139600890816200002f919062000b77565b506040518060800160405280605781526020016200476960579139600990816200005a919062000b77565b506040518060c001604052806040518060400160405280600881526020017f436f6c6f7373616c00000000000000000000000000000000000000000000000081525081526020016040518060400160405280600981526020017f42656175746966756c000000000000000000000000000000000000000000000081525081526020016040518060400160405280600781526020017f496d6d656e73650000000000000000000000000000000000000000000000000081525081526020016040518060400160405280600781526020017f4d656c6f6469630000000000000000000000000000000000000000000000000081525081526020016040518060400160405280600681526020017f476966746564000000000000000000000000000000000000000000000000000081525081526020016040518060400160405280600681526020017f486f6c6c6f770000000000000000000000000000000000000000000000000000815250815250600a906006620001d892919062000810565b506040518060c001604052806040518060400160405280600781526020017f50616e63616b650000000000000000000000000000000000000000000000000081525081526020016040518060400160405280600681526020017f4e6f6f646c65000000000000000000000000000000000000000000000000000081525081526020016040518060400160405280600581526020017f4c61746b6100000000000000000000000000000000000000000000000000000081525081526020016040518060400160405280600481526020017f536f75700000000000000000000000000000000000000000000000000000000081525081526020016040518060400160405280600681526020017f427572676572000000000000000000000000000000000000000000000000000081525081526020016040518060400160405280600681526020017f596f677572740000000000000000000000000000000000000000000000000000815250815250600b9060066200035692919062000810565b506040518060c001604052806040518060400160405280600581526020017f526f6e696e00000000000000000000000000000000000000000000000000000081525081526020016040518060400160405280600681526020017f57697a617264000000000000000000000000000000000000000000000000000081525081526020016040518060400160405280600581526020017f477561726400000000000000000000000000000000000000000000000000000081525081526020016040518060400160405280600581526020017f526f79616c00000000000000000000000000000000000000000000000000000081525081526020016040518060400160405280600681526020017f507269657374000000000000000000000000000000000000000000000000000081525081526020016040518060400160405280600b81526020017f4e6563726f6d616e636572000000000000000000000000000000000000000000815250815250600c906006620004d492919062000810565b506040518060c001604052806040518060400160405280600381526020017f726564000000000000000000000000000000000000000000000000000000000081525081526020016040518060400160405280600781526020017f233038433241380000000000000000000000000000000000000000000000000081525081526020016040518060400160405280600581526020017f626c61636b00000000000000000000000000000000000000000000000000000081525081526020016040518060400160405280600681526020017f79656c6c6f77000000000000000000000000000000000000000000000000000081525081526020016040518060400160405280600481526020017f626c75650000000000000000000000000000000000000000000000000000000081525081526020016040518060400160405280600581526020017f677265656e000000000000000000000000000000000000000000000000000000815250815250600d9060066200065292919062000810565b503480156200066057600080fd5b506040518060400160405280600981526020017f55676c6172744e465400000000000000000000000000000000000000000000008152506040518060400160405280600481526020017f55415254000000000000000000000000000000000000000000000000000000008152508160009081620006de919062000b77565b508060019081620006f0919062000b77565b5050506200073e6040518060400160405280601e81526020017f54686973206973206d79204e465420636f6e74726163742e20576f61682100008152506200074460201b620011101760201c565b62000d11565b620007e4816040516024016200075b919062000ced565b6040516020818303038152906040527f41304fac000000000000000000000000000000000000000000000000000000007bffffffffffffffffffffffffffffffffffffffffffffffffffffffff19166020820180517bffffffffffffffffffffffffffffffffffffffffffffffffffffffff8381831617835250505050620007e760201b60201c565b50565b60008151905060006a636f6e736f6c652e6c6f679050602083016000808483855afa5050505050565b8280548282559060005260206000209081019282156200085d579160200282015b828111156200085c5782518290816200084b919062000b77565b509160200191906001019062000831565b5b5090506200086c919062000870565b5090565b5b808211156200089457600081816200088a919062000898565b5060010162000871565b5090565b508054620008a69062000966565b6000825580601f10620008ba5750620008db565b601f016020900490600052602060002090810190620008da9190620008de565b5b50565b5b80821115620008f9576000816000905550600101620008df565b5090565b600081519050919050565b7f4e487b7100000000000000000000000000000000000000000000000000000000600052604160045260246000fd5b7f4e487b7100000000000000000000000000000000000000000000000000000000600052602260045260246000fd5b600060028204905060018216806200097f57607f821691505b60208210810362000995576200099462000937565b5b50919050565b60008190508160005260206000209050919050565b60006020601f8301049050919050565b600082821b905092915050565b600060088302620009ff7fffffffffffffffffffffffffffffffffffffffffffffffffffffffffffffffff82620009c0565b62000a0b8683620009c0565b95508019841693508086168417925050509392505050565b6000819050919050565b6000819050919050565b600062000a5862000a5262000a4c8462000a23565b62000a2d565b62000a23565b9050919050565b6000819050919050565b62000a748362000a37565b62000a8c62000a838262000a5f565b848454620009cd565b825550505050565b600090565b62000aa362000a94565b62000ab081848462000a69565b505050565b5b8181101562000ad85762000acc60008262000a99565b60018101905062000ab6565b5050565b601f82111562000b275762000af1816200099b565b62000afc84620009b0565b8101602085101562000b0c578190505b62000b2462000b1b85620009b0565b83018262000ab5565b50505b505050565b600082821c905092915050565b600062000b4c6000198460080262000b2c565b1980831691505092915050565b600062000b67838362000b39565b9150826002028217905092915050565b62000b8282620008fd565b67ffffffffffffffff81111562000b9e5762000b9d62000908565b5b62000baa825462000966565b62000bb782828562000adc565b600060209050601f83116001811462000bef576000841562000bda578287015190505b62000be6858262000b59565b86555062000c56565b601f19841662000bff866200099b565b60005b8281101562000c295784890151825560018201915060208501945060208101905062000c02565b8683101562000c49578489015162000c45601f89168262000b39565b8355505b6001600288020188555050505b505050505050565b600082825260208201905092915050565b60005b8381101562000c8f57808201518184015260208101905062000c72565b60008484015250505050565b6000601f19601f8301169050919050565b600062000cb982620008fd565b62000cc5818562000c5e565b935062000cd781856020860162000c6f565b62000ce28162000c9b565b840191505092915050565b6000602082019050818103600083015262000d09818462000cac565b905092915050565b6139758062000d216000396000f3fe608060405234801561001057600080fd5b50600436106101165760003560e01c806370a08231116100a2578063b187301f11610071578063b187301f146102f1578063b88d4fde14610321578063c575757a1461033d578063c87b56dd1461036d578063e985e9c51461039d57610116565b806370a082311461027d578063767dff71146102ad57806395d89b41146102b7578063a22cb465146102d557610116565b806323b872dd116100e957806323b872dd146101b55780632de38d68146101d157806342842e0e14610201578063514dc8c61461021d5780636352211e1461024d57610116565b806301ffc9a71461011b57806306fdde031461014b578063081812fc14610169578063095ea7b314610199575b600080fd5b610135600480360381019061013091906121c2565b6103cd565b604051610142919061220a565b60405180910390f35b6101536104af565b60405161016091906122b5565b60405180910390f35b610183600480360381019061017e919061230d565b610541565b604051610190919061237b565b60405180910390f35b6101b360048036038101906101ae91906123c2565b610587565b005b6101cf60048036038101906101ca9190612402565b61069e565b005b6101eb60048036038101906101e6919061230d565b6106fe565b6040516101f891906122b5565b60405180910390f35b61021b60048036038101906102169190612402565b6107f6565b005b6102376004803603810190610232919061230d565b610816565b60405161024491906122b5565b60405180910390f35b6102676004803603810190610262919061230d565b61090e565b604051610274919061237b565b60405180910390f35b61029760048036038101906102929190612455565b6109bf565b6040516102a49190612491565b60405180910390f35b6102b5610a76565b005b6102bf610c70565b6040516102cc91906122b5565b60405180910390f35b6102ef60048036038101906102ea91906124d8565b610d02565b005b61030b6004803603810190610306919061230d565b610d18565b60405161031891906122b5565b60405180910390f35b61033b6004803603810190610336919061264d565b610e10565b005b6103576004803603810190610352919061230d565b610e72565b60405161036491906122b5565b60405180910390f35b6103876004803603810190610382919061230d565b610f6a565b60405161039491906122b5565b60405180910390f35b6103b760048036038101906103b291906126d0565b61107c565b6040516103c4919061220a565b60405180910390f35b60007f80ac58cd000000000000000000000000000000000000000000000000000000007bffffffffffffffffffffffffffffffffffffffffffffffffffffffff1916827bffffffffffffffffffffffffffffffffffffffffffffffffffffffff1916148061049857507f5b5e139f000000000000000000000000000000000000000000000000000000007bffffffffffffffffffffffffffffffffffffffffffffffffffffffff1916827bffffffffffffffffffffffffffffffffffffffffffffffffffffffff1916145b806104a857506104a7826111a9565b5b9050919050565b6060600080546104be9061273f565b80601f01602080910402602001604051908101604052809291908181526020018280546104ea9061273f565b80156105375780601f1061050c57610100808354040283529160200191610537565b820191906000526020600020905b81548152906001019060200180831161051a57829003601f168201915b5050505050905090565b600061054c82611213565b6004600083815260200190815260200160002060009054906101000a900473ffffffffffffffffffffffffffffffffffffffff169050919050565b60006105928261090e565b90508073ffffffffffffffffffffffffffffffffffffffff168373ffffffffffffffffffffffffffffffffffffffff1603610602576040517f08c379a00000000000000000000000000000000000000000000000000000000081526004016105f9906127e2565b60405180910390fd5b8073ffffffffffffffffffffffffffffffffffffffff1661062161125e565b73ffffffffffffffffffffffffffffffffffffffff161480610650575061064f8161064a61125e565b61107c565b5b61068f576040517f08c379a000000000000000000000000000000000000000000000000000000000815260040161068690612874565b60405180910390fd5b6106998383611266565b505050565b6106af6106a961125e565b8261131f565b6106ee576040517f08c379a00000000000000000000000000000000000000000000000000000000081526004016106e590612906565b60405180910390fd5b6106f98383836113b4565b505050565b6060600061073261070e8461161a565b60405160200161071e91906129ae565b60405160208183030381529060405261177a565b9050600a805490508161074591906129ff565b9050600a818154811061075b5761075a612a30565b5b9060005260206000200180546107709061273f565b80601f016020809104026020016040519081016040528092919081815260200182805461079c9061273f565b80156107e95780601f106107be576101008083540402835291602001916107e9565b820191906000526020600020905b8154815290600101906020018083116107cc57829003601f168201915b5050505050915050919050565b61081183838360405180602001604052806000815250610e10565b505050565b6060600061084a6108268461161a565b6040516020016108369190612aab565b60405160208183030381529060405261177a565b9050600d805490508161085d91906129ff565b9050600d818154811061087357610872612a30565b5b9060005260206000200180546108889061273f565b80601f01602080910402602001604051908101604052809291908181526020018280546108b49061273f565b80156109015780601f106108d657610100808354040283529160200191610901565b820191906000526020600020905b8154815290600101906020018083116108e457829003601f168201915b5050505050915050919050565b6000806002600084815260200190815260200160002060009054906101000a900473ffffffffffffffffffffffffffffffffffffffff169050600073ffffffffffffffffffffffffffffffffffffffff168173ffffffffffffffffffffffffffffffffffffffff16036109b6576040517f08c379a00000000000000000000000000000000000000000000000000000000081526004016109ad90612b19565b60405180910390fd5b80915050919050565b60008073ffffffffffffffffffffffffffffffffffffffff168273ffffffffffffffffffffffffffffffffffffffff1603610a2f576040517f08c379a0000000000000000000000000000000000000000000000000000000008152600401610a2690612bab565b60405180910390fd5b600360008373ffffffffffffffffffffffffffffffffffffffff1673ffffffffffffffffffffffffffffffffffffffff168152602001908152602001600020549050919050565b6000610a8260076117ad565b90506000610a8f826106fe565b90506000610a9c83610d18565b90506000610aa984610e72565b90506000838383604051602001610ac293929190612bcb565b60405160208183030381529060405290506000610ade86610816565b90506000600882600985604051602001610afb9493929190612ce0565b60405160208183030381529060405290506000610b4084610b1b846117bb565b604051602001610b2c929190612e7f565b6040516020818303038152906040526117bb565b9050600081604051602001610b559190612f10565b6040516020818303038152906040529050610ba46040518060400160405280601581526020017f0a2d2d2d2d2d2d2d2d2d2d2d2d2d2d2d2d2d2d2d2d0000000000000000000000815250611110565b610bad81611110565b610beb6040518060400160405280601581526020017f2d2d2d2d2d2d2d2d2d2d2d2d2d2d2d2d2d2d2d2d0a0000000000000000000000815250611110565b610bf5338a611952565b610bff8982611970565b610c0960076119dd565b610c2c6040518060600160405280602581526020016138db602591398a336119f3565b7fa07ebc0f8e43d69e8e35359e0923068d42ec94add4fce8394065a85f1181e2ee338a604051610c5d929190612f32565b60405180910390a1505050505050505050565b606060018054610c7f9061273f565b80601f0160208091040260200160405190810160405280929190818152602001828054610cab9061273f565b8015610cf85780601f10610ccd57610100808354040283529160200191610cf8565b820191906000526020600020905b815481529060010190602001808311610cdb57829003601f168201915b5050505050905090565b610d14610d0d61125e565b8383611a92565b5050565b60606000610d4c610d288461161a565b604051602001610d389190612fa7565b60405160208183030381529060405261177a565b9050600b8054905081610d5f91906129ff565b9050600b8181548110610d7557610d74612a30565b5b906000526020600020018054610d8a9061273f565b80601f0160208091040260200160405190810160405280929190818152602001828054610db69061273f565b8015610e035780601f10610dd857610100808354040283529160200191610e03565b820191906000526020600020905b815481529060010190602001808311610de657829003601f168201915b5050505050915050919050565b610e21610e1b61125e565b8361131f565b610e60576040517f08c379a0000000000000000000000000000000000000000000000000000000008152600401610e5790612906565b60405180910390fd5b610e6c84848484611bfe565b50505050565b60606000610ea6610e828461161a565b604051602001610e929190613015565b60405160208183030381529060405261177a565b9050600c8054905081610eb991906129ff565b9050600c8181548110610ecf57610ece612a30565b5b906000526020600020018054610ee49061273f565b80601f0160208091040260200160405190810160405280929190818152602001828054610f109061273f565b8015610f5d5780601f10610f3257610100808354040283529160200191610f5d565b820191906000526020600020905b815481529060010190602001808311610f4057829003601f168201915b5050505050915050919050565b6060610f7582611213565b6000600660008481526020019081526020016000208054610f959061273f565b80601f0160208091040260200160405190810160405280929190818152602001828054610fc19061273f565b801561100e5780601f10610fe35761010080835404028352916020019161100e565b820191906000526020600020905b815481529060010190602001808311610ff157829003601f168201915b50505050509050600061101f611c5a565b90506000815103611034578192505050611077565b600082511115611069578082604051602001611051929190613037565b60405160208183030381529060405292505050611077565b61107284611c71565b925050505b919050565b6000600560008473ffffffffffffffffffffffffffffffffffffffff1673ffffffffffffffffffffffffffffffffffffffff16815260200190815260200160002060008373ffffffffffffffffffffffffffffffffffffffff1673ffffffffffffffffffffffffffffffffffffffff16815260200190815260200160002060009054906101000a900460ff16905092915050565b6111a68160405160240161112491906122b5565b6040516020818303038152906040527f41304fac000000000000000000000000000000000000000000000000000000007bffffffffffffffffffffffffffffffffffffffffffffffffffffffff19166020820180517bffffffffffffffffffffffffffffffffffffffffffffffffffffffff8381831617835250505050611cd9565b50565b60007f01ffc9a7000000000000000000000000000000000000000000000000000000007bffffffffffffffffffffffffffffffffffffffffffffffffffffffff1916827bffffffffffffffffffffffffffffffffffffffffffffffffffffffff1916149050919050565b61121c81611d02565b61125b576040517f08c379a000000000000000000000000000000000000000000000000000000000815260040161125290612b19565b60405180910390fd5b50565b600033905090565b816004600083815260200190815260200160002060006101000a81548173ffffffffffffffffffffffffffffffffffffffff021916908373ffffffffffffffffffffffffffffffffffffffff160217905550808273ffffffffffffffffffffffffffffffffffffffff166112d98361090e565b73ffffffffffffffffffffffffffffffffffffffff167f8c5be1e5ebec7d5bd14f71427d1e84f3dd0314c0f7b2291e5b200ac8c7c3b92560405160405180910390a45050565b60008061132b8361090e565b90508073ffffffffffffffffffffffffffffffffffffffff168473ffffffffffffffffffffffffffffffffffffffff16148061136d575061136c818561107c565b5b806113ab57508373ffffffffffffffffffffffffffffffffffffffff1661139384610541565b73ffffffffffffffffffffffffffffffffffffffff16145b91505092915050565b8273ffffffffffffffffffffffffffffffffffffffff166113d48261090e565b73ffffffffffffffffffffffffffffffffffffffff161461142a576040517f08c379a0000000000000000000000000000000000000000000000000000000008152600401611421906130cd565b60405180910390fd5b600073ffffffffffffffffffffffffffffffffffffffff168273ffffffffffffffffffffffffffffffffffffffff1603611499576040517f08c379a00000000000000000000000000000000000000000000000000000000081526004016114909061315f565b60405180910390fd5b6114a4838383611d6e565b6114af600082611266565b6001600360008573ffffffffffffffffffffffffffffffffffffffff1673ffffffffffffffffffffffffffffffffffffffff16815260200190815260200160002060008282546114ff91906131ae565b925050819055506001600360008473ffffffffffffffffffffffffffffffffffffffff1673ffffffffffffffffffffffffffffffffffffffff168152602001908152602001600020600082825461155691906131e2565b92505081905550816002600083815260200190815260200160002060006101000a81548173ffffffffffffffffffffffffffffffffffffffff021916908373ffffffffffffffffffffffffffffffffffffffff160217905550808273ffffffffffffffffffffffffffffffffffffffff168473ffffffffffffffffffffffffffffffffffffffff167fddf252ad1be2c89b69c2b068fc378daa952ba7f163c4a11628f55a4df523b3ef60405160405180910390a4611615838383611d73565b505050565b606060008203611661576040518060400160405280600181526020017f30000000000000000000000000000000000000000000000000000000000000008152509050611775565b600082905060005b6000821461169357808061167c90613216565b915050600a8261168c919061325e565b9150611669565b60008167ffffffffffffffff8111156116af576116ae612522565b5b6040519080825280601f01601f1916602001820160405280156116e15781602001600182028036833780820191505090505b5090505b6000851461176e576001826116fa91906131ae565b9150600a8561170991906129ff565b603061171591906131e2565b60f81b81838151811061172b5761172a612a30565b5b60200101907effffffffffffffffffffffffffffffffffffffffffffffffffffffffffffff1916908160001a905350600a85611767919061325e565b94506116e5565b8093505050505b919050565b60008160405160200161178d919061328f565b6040516020818303038152906040528051906020012060001c9050919050565b600081600001549050919050565b6060600082519050600081036117e3576040518060200160405280600081525091505061194d565b600060036002836117f491906131e2565b6117fe919061325e565b600461180a91906132a6565b9050600060208261181b91906131e2565b67ffffffffffffffff81111561183457611833612522565b5b6040519080825280601f01601f1916602001820160405280156118665781602001600182028036833780820191505090505b5090506000604051806060016040528060408152602001613900604091399050600181016020830160005b8681101561190a5760038101905062ffffff818a015116603f8160121c168401518060081b905060ff603f83600c1c1686015116810190508060081b905060ff603f8360061c1686015116810190508060081b905060ff603f831686015116810190508060e01b90508084526004840193505050611891565b50600386066001811461192457600281146119345761193f565b613d3d60f01b600283035261193f565b603d60f81b60018303525b508484525050819450505050505b919050565b61196c828260405180602001604052806000815250611d78565b5050565b61197982611d02565b6119b8576040517f08c379a00000000000000000000000000000000000000000000000000000000081526004016119af9061335a565b60405180910390fd5b806006600084815260200190815260200160002090816119d89190613511565b505050565b6001816000016000828254019250508190555050565b611a8d838383604051602401611a0b939291906135e3565b6040516020818303038152906040527f1c7ec448000000000000000000000000000000000000000000000000000000007bffffffffffffffffffffffffffffffffffffffffffffffffffffffff19166020820180517bffffffffffffffffffffffffffffffffffffffffffffffffffffffff8381831617835250505050611cd9565b505050565b8173ffffffffffffffffffffffffffffffffffffffff168373ffffffffffffffffffffffffffffffffffffffff1603611b00576040517f08c379a0000000000000000000000000000000000000000000000000000000008152600401611af79061366d565b60405180910390fd5b80600560008573ffffffffffffffffffffffffffffffffffffffff1673ffffffffffffffffffffffffffffffffffffffff16815260200190815260200160002060008473ffffffffffffffffffffffffffffffffffffffff1673ffffffffffffffffffffffffffffffffffffffff16815260200190815260200160002060006101000a81548160ff0219169083151502179055508173ffffffffffffffffffffffffffffffffffffffff168373ffffffffffffffffffffffffffffffffffffffff167f17307eab39ab6107e8899845ad3d59bd9653f200f220920489ca2b5937696c3183604051611bf1919061220a565b60405180910390a3505050565b611c098484846113b4565b611c1584848484611dd3565b611c54576040517f08c379a0000000000000000000000000000000000000000000000000000000008152600401611c4b906136ff565b60405180910390fd5b50505050565b606060405180602001604052806000815250905090565b6060611c7c82611213565b6000611c86611c5a565b90506000815111611ca65760405180602001604052806000815250611cd1565b80611cb08461161a565b604051602001611cc1929190613037565b6040516020818303038152906040525b915050919050565b60008151905060006a636f6e736f6c652e6c6f679050602083016000808483855afa5050505050565b60008073ffffffffffffffffffffffffffffffffffffffff166002600084815260200190815260200160002060009054906101000a900473ffffffffffffffffffffffffffffffffffffffff1673ffffffffffffffffffffffffffffffffffffffff1614159050919050565b505050565b505050565b611d828383611f5a565b611d8f6000848484611dd3565b611dce576040517f08c379a0000000000000000000000000000000000000000000000000000000008152600401611dc5906136ff565b60405180910390fd5b505050565b6000611df48473ffffffffffffffffffffffffffffffffffffffff16612133565b15611f4d578373ffffffffffffffffffffffffffffffffffffffff1663150b7a02611e1d61125e565b8786866040518563ffffffff1660e01b8152600401611e3f9493929190613774565b6020604051808303816000875af1925050508015611e7b57506040513d601f19601f82011682018060405250810190611e7891906137d5565b60015b611efd573d8060008114611eab576040519150601f19603f3d011682016040523d82523d6000602084013e611eb0565b606091505b506000815103611ef5576040517f08c379a0000000000000000000000000000000000000000000000000000000008152600401611eec906136ff565b60405180910390fd5b805181602001fd5b63150b7a0260e01b7bffffffffffffffffffffffffffffffffffffffffffffffffffffffff1916817bffffffffffffffffffffffffffffffffffffffffffffffffffffffff191614915050611f52565b600190505b949350505050565b600073ffffffffffffffffffffffffffffffffffffffff168273ffffffffffffffffffffffffffffffffffffffff1603611fc9576040517f08c379a0000000000000000000000000000000000000000000000000000000008152600401611fc09061384e565b60405180910390fd5b611fd281611d02565b15612012576040517f08c379a0000000000000000000000000000000000000000000000000000000008152600401612009906138ba565b60405180910390fd5b61201e60008383611d6e565b6001600360008473ffffffffffffffffffffffffffffffffffffffff1673ffffffffffffffffffffffffffffffffffffffff168152602001908152602001600020600082825461206e91906131e2565b92505081905550816002600083815260200190815260200160002060006101000a81548173ffffffffffffffffffffffffffffffffffffffff021916908373ffffffffffffffffffffffffffffffffffffffff160217905550808273ffffffffffffffffffffffffffffffffffffffff16600073ffffffffffffffffffffffffffffffffffffffff167fddf252ad1be2c89b69c2b068fc378daa952ba7f163c4a11628f55a4df523b3ef60405160405180910390a461212f60008383611d73565b5050565b6000808273ffffffffffffffffffffffffffffffffffffffff163b119050919050565b6000604051905090565b600080fd5b600080fd5b60007fffffffff0000000000000000000000000000000000000000000000000000000082169050919050565b61219f8161216a565b81146121aa57600080fd5b50565b6000813590506121bc81612196565b92915050565b6000602082840312156121d8576121d7612160565b5b60006121e6848285016121ad565b91505092915050565b60008115159050919050565b612204816121ef565b82525050565b600060208201905061221f60008301846121fb565b92915050565b600081519050919050565b600082825260208201905092915050565b60005b8381101561225f578082015181840152602081019050612244565b60008484015250505050565b6000601f19601f8301169050919050565b600061228782612225565b6122918185612230565b93506122a1818560208601612241565b6122aa8161226b565b840191505092915050565b600060208201905081810360008301526122cf818461227c565b905092915050565b6000819050919050565b6122ea816122d7565b81146122f557600080fd5b50565b600081359050612307816122e1565b92915050565b60006020828403121561232357612322612160565b5b6000612331848285016122f8565b91505092915050565b600073ffffffffffffffffffffffffffffffffffffffff82169050919050565b60006123658261233a565b9050919050565b6123758161235a565b82525050565b6000602082019050612390600083018461236c565b92915050565b61239f8161235a565b81146123aa57600080fd5b50565b6000813590506123bc81612396565b92915050565b600080604083850312156123d9576123d8612160565b5b60006123e7858286016123ad565b92505060206123f8858286016122f8565b9150509250929050565b60008060006060848603121561241b5761241a612160565b5b6000612429868287016123ad565b935050602061243a868287016123ad565b925050604061244b868287016122f8565b9150509250925092565b60006020828403121561246b5761246a612160565b5b6000612479848285016123ad565b91505092915050565b61248b816122d7565b82525050565b60006020820190506124a66000830184612482565b92915050565b6124b5816121ef565b81146124c057600080fd5b50565b6000813590506124d2816124ac565b92915050565b600080604083850312156124ef576124ee612160565b5b60006124fd858286016123ad565b925050602061250e858286016124c3565b9150509250929050565b600080fd5b600080fd5b7f4e487b7100000000000000000000000000000000000000000000000000000000600052604160045260246000fd5b61255a8261226b565b810181811067ffffffffffffffff8211171561257957612578612522565b5b80604052505050565b600061258c612156565b90506125988282612551565b919050565b600067ffffffffffffffff8211156125b8576125b7612522565b5b6125c18261226b565b9050602081019050919050565b82818337600083830152505050565b60006125f06125eb8461259d565b612582565b90508281526020810184848401111561260c5761260b61251d565b5b6126178482856125ce565b509392505050565b600082601f83011261263457612633612518565b5b81356126448482602086016125dd565b91505092915050565b6000806000806080858703121561266757612666612160565b5b6000612675878288016123ad565b9450506020612686878288016123ad565b9350506040612697878288016122f8565b925050606085013567ffffffffffffffff8111156126b8576126b7612165565b5b6126c48782880161261f565b91505092959194509250565b600080604083850312156126e7576126e6612160565b5b60006126f5858286016123ad565b9250506020612706858286016123ad565b9150509250929050565b7f4e487b7100000000000000000000000000000000000000000000000000000000600052602260045260246000fd5b6000600282049050600182168061275757607f821691505b60208210810361276a57612769612710565b5b50919050565b7f4552433732313a20617070726f76616c20746f2063757272656e74206f776e6560008201527f7200000000000000000000000000000000000000000000000000000000000000602082015250565b60006127cc602183612230565b91506127d782612770565b604082019050919050565b600060208201905081810360008301526127fb816127bf565b9050919050565b7f4552433732313a20617070726f76652063616c6c6572206973206e6f7420746f60008201527f6b656e206f776e6572206e6f7220617070726f76656420666f7220616c6c0000602082015250565b600061285e603e83612230565b915061286982612802565b604082019050919050565b6000602082019050818103600083015261288d81612851565b9050919050565b7f4552433732313a2063616c6c6572206973206e6f7420746f6b656e206f776e6560008201527f72206e6f7220617070726f766564000000000000000000000000000000000000602082015250565b60006128f0602e83612230565b91506128fb82612894565b604082019050919050565b6000602082019050818103600083015261291f816128e3565b9050919050565b600081905092915050565b7f46495253545f574f524400000000000000000000000000000000000000000000600082015250565b6000612967600a83612926565b915061297282612931565b600a82019050919050565b600061298882612225565b6129928185612926565b93506129a2818560208601612241565b80840191505092915050565b60006129b98261295a565b91506129c5828461297d565b915081905092915050565b7f4e487b7100000000000000000000000000000000000000000000000000000000600052601260045260246000fd5b6000612a0a826122d7565b9150612a15836122d7565b925082612a2557612a246129d0565b5b828206905092915050565b7f4e487b7100000000000000000000000000000000000000000000000000000000600052603260045260246000fd5b7f434f4c4f52000000000000000000000000000000000000000000000000000000600082015250565b6000612a95600583612926565b9150612aa082612a5f565b600582019050919050565b6000612ab682612a88565b9150612ac2828461297d565b915081905092915050565b7f4552433732313a20696e76616c696420746f6b656e2049440000000000000000600082015250565b6000612b03601883612230565b9150612b0e82612acd565b602082019050919050565b60006020820190508181036000830152612b3281612af6565b9050919050565b7f4552433732313a2061646472657373207a65726f206973206e6f74206120766160008201527f6c6964206f776e65720000000000000000000000000000000000000000000000602082015250565b6000612b95602983612230565b9150612ba082612b39565b604082019050919050565b60006020820190508181036000830152612bc481612b88565b9050919050565b6000612bd7828661297d565b9150612be3828561297d565b9150612bef828461297d565b9150819050949350505050565b60008190508160005260206000209050919050565b60008154612c1e8161273f565b612c288186612926565b94506001821660008114612c435760018114612c5857612c8b565b60ff1983168652811515820286019350612c8b565b612c6185612bfc565b60005b83811015612c8357815481890152600182019150602081019050612c64565b838801955050505b50505092915050565b7f3c2f746578743e3c2f7376673e00000000000000000000000000000000000000600082015250565b6000612cca600d83612926565b9150612cd582612c94565b600d82019050919050565b6000612cec8287612c11565b9150612cf8828661297d565b9150612d048285612c11565b9150612d10828461297d565b9150612d1b82612cbd565b915081905095945050505050565b7f7b226e616d65223a202200000000000000000000000000000000000000000000600082015250565b6000612d5f600a83612926565b9150612d6a82612d29565b600a82019050919050565b7f222c20226465736372697074696f6e223a20224120686967686c79206163636c60008201527f61696d656420636f6c6c656374696f6e206f6620737175617265732e222c202260208201527f696d616765223a2022646174613a696d6167652f7376672b786d6c3b6261736560408201527f36342c0000000000000000000000000000000000000000000000000000000000606082015250565b6000612e1d606383612926565b9150612e2882612d75565b606382019050919050565b7f227d000000000000000000000000000000000000000000000000000000000000600082015250565b6000612e69600283612926565b9150612e7482612e33565b600282019050919050565b6000612e8a82612d52565b9150612e96828561297d565b9150612ea182612e10565b9150612ead828461297d565b9150612eb882612e5c565b91508190509392505050565b7f646174613a6170706c69636174696f6e2f6a736f6e3b6261736536342c000000600082015250565b6000612efa601d83612926565b9150612f0582612ec4565b601d82019050919050565b6000612f1b82612eed565b9150612f27828461297d565b915081905092915050565b6000604082019050612f47600083018561236c565b612f546020830184612482565b9392505050565b7f5345434f4e445f574f5244000000000000000000000000000000000000000000600082015250565b6000612f91600b83612926565b9150612f9c82612f5b565b600b82019050919050565b6000612fb282612f84565b9150612fbe828461297d565b915081905092915050565b7f54484952445f574f524400000000000000000000000000000000000000000000600082015250565b6000612fff600a83612926565b915061300a82612fc9565b600a82019050919050565b600061302082612ff2565b915061302c828461297d565b915081905092915050565b6000613043828561297d565b915061304f828461297d565b91508190509392505050565b7f4552433732313a207472616e736665722066726f6d20696e636f72726563742060008201527f6f776e6572000000000000000000000000000000000000000000000000000000602082015250565b60006130b7602583612230565b91506130c28261305b565b604082019050919050565b600060208201905081810360008301526130e6816130aa565b9050919050565b7f4552433732313a207472616e7366657220746f20746865207a65726f2061646460008201527f7265737300000000000000000000000000000000000000000000000000000000602082015250565b6000613149602483612230565b9150613154826130ed565b604082019050919050565b600060208201905081810360008301526131788161313c565b9050919050565b7f4e487b7100000000000000000000000000000000000000000000000000000000600052601160045260246000fd5b60006131b9826122d7565b91506131c4836122d7565b92508282039050818111156131dc576131db61317f565b5b92915050565b60006131ed826122d7565b91506131f8836122d7565b92508282019050808211156132105761320f61317f565b5b92915050565b6000613221826122d7565b91507fffffffffffffffffffffffffffffffffffffffffffffffffffffffffffffffff82036132535761325261317f565b5b600182019050919050565b6000613269826122d7565b9150613274836122d7565b925082613284576132836129d0565b5b828204905092915050565b600061329b828461297d565b915081905092915050565b60006132b1826122d7565b91506132bc836122d7565b92508282026132ca816122d7565b915082820484148315176132e1576132e061317f565b5b5092915050565b7f45524337323155524953746f726167653a2055524920736574206f66206e6f6e60008201527f6578697374656e7420746f6b656e000000000000000000000000000000000000602082015250565b6000613344602e83612230565b915061334f826132e8565b604082019050919050565b6000602082019050818103600083015261337381613337565b9050919050565b60006020601f8301049050919050565b600082821b905092915050565b6000600883026133c77fffffffffffffffffffffffffffffffffffffffffffffffffffffffffffffffff8261338a565b6133d1868361338a565b95508019841693508086168417925050509392505050565b6000819050919050565b600061340e613409613404846122d7565b6133e9565b6122d7565b9050919050565b6000819050919050565b613428836133f3565b61343c61343482613415565b848454613397565b825550505050565b600090565b613451613444565b61345c81848461341f565b505050565b5b8181101561348057613475600082613449565b600181019050613462565b5050565b601f8211156134c55761349681612bfc565b61349f8461337a565b810160208510156134ae578190505b6134c26134ba8561337a565b830182613461565b50505b505050565b600082821c905092915050565b60006134e8600019846008026134ca565b1980831691505092915050565b600061350183836134d7565b9150826002028217905092915050565b61351a82612225565b67ffffffffffffffff81111561353357613532612522565b5b61353d825461273f565b613548828285613484565b600060209050601f83116001811461357b5760008415613569578287015190505b61357385826134f5565b8655506135db565b601f19841661358986612bfc565b60005b828110156135b15784890151825560018201915060208501945060208101905061358c565b868310156135ce57848901516135ca601f8916826134d7565b8355505b6001600288020188555050505b505050505050565b600060608201905081810360008301526135fd818661227c565b905061360c6020830185612482565b613619604083018461236c565b949350505050565b7f4552433732313a20617070726f766520746f2063616c6c657200000000000000600082015250565b6000613657601983612230565b915061366282613621565b602082019050919050565b600060208201905081810360008301526136868161364a565b9050919050565b7f4552433732313a207472616e7366657220746f206e6f6e20455243373231526560008201527f63656976657220696d706c656d656e7465720000000000000000000000000000602082015250565b60006136e9603283612230565b91506136f48261368d565b604082019050919050565b60006020820190508181036000830152613718816136dc565b9050919050565b600081519050919050565b600082825260208201905092915050565b60006137468261371f565b613750818561372a565b9350613760818560208601612241565b6137698161226b565b840191505092915050565b6000608082019050613789600083018761236c565b613796602083018661236c565b6137a36040830185612482565b81810360608301526137b5818461373b565b905095945050505050565b6000815190506137cf81612196565b92915050565b6000602082840312156137eb576137ea612160565b5b60006137f9848285016137c0565b91505092915050565b7f4552433732313a206d696e7420746f20746865207a65726f2061646472657373600082015250565b6000613838602083612230565b915061384382613802565b602082019050919050565b600060208201905081810360008301526138678161382b565b9050919050565b7f4552433732313a20746f6b656e20616c7265616479206d696e74656400000000600082015250565b60006138a4601c83612230565b91506138af8261386e565b602082019050919050565b600060208201905081810360008301526138d381613897565b905091905056fe416e204e465420772f20494420257320686173206265656e206d696e74656420746f2025734142434445464748494a4b4c4d4e4f505152535455565758595a6162636465666768696a6b6c6d6e6f707172737475767778797a303132333435363738392b2fa264697066735822122034c5d5046c16b8c6c7da8ba90a500ac8d80e558f89a8e25909d78696e1d2a78764736f6c634300081100333c73766720786d6c6e733d27687474703a2f2f7777772e77332e6f72672f323030302f73766727207072657365727665417370656374526174696f3d27784d696e594d696e206d656574272076696577426f783d273020302033353020333530273e3c7374796c653e2e62617365207b2066696c6c3a2077686974653b20666f6e742d66616d696c793a2073657269663b20666f6e742d73697a653a20323470783b207d3c2f7374796c653e3c726563742077696474683d273130302527206865696768743d2731303025272066696c6c3d2727202f3e3c7465787420783d273530252720793d273530252720636c6173733d27626173652720646f6d696e616e742d626173656c696e653d276d6964646c652720746578742d616e63686f723d276d6964646c65273e",
  "linkReferences": {},
  "deployedLinkReferences": {}
}