{
  "_format": "hh-sol-artifact-1",
  "contractName": "UglartNFT",
  "sourceName": "contracts/UglartNFT.sol",
  "abi": [
    {
      "inputs": [],
      "stateMutability": "nonpayable",
      "type": "constructor"
    },
    {
      "anonymous": false,
      "inputs": [
        {
          "indexed": true,
          "internalType": "address",
          "name": "owner",
          "type": "address"
        },
        {
          "indexed": true,
          "internalType": "address",
          "name": "approved",
          "type": "address"
        },
        {
          "indexed": true,
          "internalType": "uint256",
          "name": "tokenId",
          "type": "uint256"
        }
      ],
      "name": "Approval",
      "type": "event"
    },
    {
      "anonymous": false,
      "inputs": [
        {
          "indexed": true,
          "internalType": "address",
          "name": "owner",
          "type": "address"
        },
        {
          "indexed": true,
          "internalType": "address",
          "name": "operator",
          "type": "address"
        },
        {
          "indexed": false,
          "internalType": "bool",
          "name": "approved",
          "type": "bool"
        }
      ],
      "name": "ApprovalForAll",
      "type": "event"
    },
    {
      "anonymous": false,
      "inputs": [
        {
          "indexed": true,
          "internalType": "address",
          "name": "from",
          "type": "address"
        },
        {
          "indexed": true,
          "internalType": "address",
          "name": "to",
          "type": "address"
        },
        {
          "indexed": true,
          "internalType": "uint256",
          "name": "tokenId",
          "type": "uint256"
        }
      ],
      "name": "Transfer",
      "type": "event"
    },
    {
      "inputs": [
        {
          "internalType": "address",
          "name": "to",
          "type": "address"
        },
        {
          "internalType": "uint256",
          "name": "tokenId",
          "type": "uint256"
        }
      ],
      "name": "approve",
      "outputs": [],
      "stateMutability": "nonpayable",
      "type": "function"
    },
    {
      "inputs": [
        {
          "internalType": "address",
          "name": "owner",
          "type": "address"
        }
      ],
      "name": "balanceOf",
      "outputs": [
        {
          "internalType": "uint256",
          "name": "",
          "type": "uint256"
        }
      ],
      "stateMutability": "view",
      "type": "function"
    },
    {
      "inputs": [
        {
          "internalType": "uint256",
          "name": "tokenId",
          "type": "uint256"
        }
      ],
      "name": "getApproved",
      "outputs": [
        {
          "internalType": "address",
          "name": "",
          "type": "address"
        }
      ],
      "stateMutability": "view",
      "type": "function"
    },
    {
      "inputs": [
        {
          "internalType": "address",
          "name": "owner",
          "type": "address"
        },
        {
          "internalType": "address",
          "name": "operator",
          "type": "address"
        }
      ],
      "name": "isApprovedForAll",
      "outputs": [
        {
          "internalType": "bool",
          "name": "",
          "type": "bool"
        }
      ],
      "stateMutability": "view",
      "type": "function"
    },
    {
      "inputs": [],
      "name": "makeUglartNFT",
      "outputs": [],
      "stateMutability": "nonpayable",
      "type": "function"
    },
    {
      "inputs": [],
      "name": "name",
      "outputs": [
        {
          "internalType": "string",
          "name": "",
          "type": "string"
        }
      ],
      "stateMutability": "view",
      "type": "function"
    },
    {
      "inputs": [
        {
          "internalType": "uint256",
          "name": "tokenId",
          "type": "uint256"
        }
      ],
      "name": "ownerOf",
      "outputs": [
        {
          "internalType": "address",
          "name": "",
          "type": "address"
        }
      ],
      "stateMutability": "view",
      "type": "function"
    },
    {
      "inputs": [
        {
          "internalType": "uint256",
          "name": "tokenId",
          "type": "uint256"
        }
      ],
      "name": "pickRandomFirstWord",
      "outputs": [
        {
          "internalType": "string",
          "name": "",
          "type": "string"
        }
      ],
      "stateMutability": "view",
      "type": "function"
    },
    {
      "inputs": [
        {
          "internalType": "uint256",
          "name": "tokenId",
          "type": "uint256"
        }
      ],
      "name": "pickRandomSecondWord",
      "outputs": [
        {
          "internalType": "string",
          "name": "",
          "type": "string"
        }
      ],
      "stateMutability": "view",
      "type": "function"
    },
    {
      "inputs": [
        {
          "internalType": "uint256",
          "name": "tokenId",
          "type": "uint256"
        }
      ],
      "name": "pickRandomThirdWord",
      "outputs": [
        {
          "internalType": "string",
          "name": "",
          "type": "string"
        }
      ],
      "stateMutability": "view",
      "type": "function"
    },
    {
      "inputs": [
        {
          "internalType": "address",
          "name": "from",
          "type": "address"
        },
        {
          "internalType": "address",
          "name": "to",
          "type": "address"
        },
        {
          "internalType": "uint256",
          "name": "tokenId",
          "type": "uint256"
        }
      ],
      "name": "safeTransferFrom",
      "outputs": [],
      "stateMutability": "nonpayable",
      "type": "function"
    },
    {
      "inputs": [
        {
          "internalType": "address",
          "name": "from",
          "type": "address"
        },
        {
          "internalType": "address",
          "name": "to",
          "type": "address"
        },
        {
          "internalType": "uint256",
          "name": "tokenId",
          "type": "uint256"
        },
        {
          "internalType": "bytes",
          "name": "data",
          "type": "bytes"
        }
      ],
      "name": "safeTransferFrom",
      "outputs": [],
      "stateMutability": "nonpayable",
      "type": "function"
    },
    {
      "inputs": [
        {
          "internalType": "address",
          "name": "operator",
          "type": "address"
        },
        {
          "internalType": "bool",
          "name": "approved",
          "type": "bool"
        }
      ],
      "name": "setApprovalForAll",
      "outputs": [],
      "stateMutability": "nonpayable",
      "type": "function"
    },
    {
      "inputs": [
        {
          "internalType": "bytes4",
          "name": "interfaceId",
          "type": "bytes4"
        }
      ],
      "name": "supportsInterface",
      "outputs": [
        {
          "internalType": "bool",
          "name": "",
          "type": "bool"
        }
      ],
      "stateMutability": "view",
      "type": "function"
    },
    {
      "inputs": [],
      "name": "symbol",
      "outputs": [
        {
          "internalType": "string",
          "name": "",
          "type": "string"
        }
      ],
      "stateMutability": "view",
      "type": "function"
    },
    {
      "inputs": [
        {
          "internalType": "uint256",
          "name": "tokenId",
          "type": "uint256"
        }
      ],
      "name": "tokenURI",
      "outputs": [
        {
          "internalType": "string",
          "name": "",
          "type": "string"
        }
      ],
      "stateMutability": "view",
      "type": "function"
    },
    {
      "inputs": [
        {
          "internalType": "address",
          "name": "from",
          "type": "address"
        },
        {
          "internalType": "address",
          "name": "to",
          "type": "address"
        },
        {
          "internalType": "uint256",
          "name": "tokenId",
          "type": "uint256"
        }
      ],
      "name": "transferFrom",
      "outputs": [],
      "stateMutability": "nonpayable",
      "type": "function"
    }
  ],
  "bytecode": "0x608060405260405180610160016040528061012f8152602001620042bf61012f913960089081620000319190620009d0565b506040518060c001604052806040518060400160405280600881526020017f436f6c6f7373616c00000000000000000000000000000000000000000000000081525081526020016040518060400160405280600981526020017f42656175746966756c000000000000000000000000000000000000000000000081525081526020016040518060400160405280600781526020017f496d6d656e73650000000000000000000000000000000000000000000000000081525081526020016040518060400160405280600781526020017f4d656c6f6469630000000000000000000000000000000000000000000000000081525081526020016040518060400160405280600681526020017f476966746564000000000000000000000000000000000000000000000000000081525081526020016040518060400160405280600681526020017f486f6c6c6f7700000000000000000000000000000000000000000000000000008152508152506009906006620001af92919062000669565b506040518060c001604052806040518060400160405280600781526020017f50616e63616b650000000000000000000000000000000000000000000000000081525081526020016040518060400160405280600681526020017f4e6f6f646c65000000000000000000000000000000000000000000000000000081525081526020016040518060400160405280600581526020017f4c61746b6100000000000000000000000000000000000000000000000000000081525081526020016040518060400160405280600481526020017f536f75700000000000000000000000000000000000000000000000000000000081525081526020016040518060400160405280600681526020017f427572676572000000000000000000000000000000000000000000000000000081525081526020016040518060400160405280600681526020017f596f677572740000000000000000000000000000000000000000000000000000815250815250600a9060066200032d92919062000669565b506040518060c001604052806040518060400160405280600581526020017f526f6e696e00000000000000000000000000000000000000000000000000000081525081526020016040518060400160405280600681526020017f57697a617264000000000000000000000000000000000000000000000000000081525081526020016040518060400160405280600581526020017f477561726400000000000000000000000000000000000000000000000000000081525081526020016040518060400160405280600581526020017f526f79616c00000000000000000000000000000000000000000000000000000081525081526020016040518060400160405280600681526020017f507269657374000000000000000000000000000000000000000000000000000081525081526020016040518060400160405280600b81526020017f4e6563726f6d616e636572000000000000000000000000000000000000000000815250815250600b906006620004ab92919062000669565b50348015620004b957600080fd5b506040518060400160405280600981526020017f55676c6172744e465400000000000000000000000000000000000000000000008152506040518060400160405280600481526020017f55415254000000000000000000000000000000000000000000000000000000008152508160009081620005379190620009d0565b508060019081620005499190620009d0565b505050620005976040518060400160405280601e81526020017f54686973206973206d79204e465420636f6e74726163742e20576f61682100008152506200059d60201b62000f911760201c565b62000b6a565b6200063d81604051602401620005b4919062000b46565b6040516020818303038152906040527f41304fac000000000000000000000000000000000000000000000000000000007bffffffffffffffffffffffffffffffffffffffffffffffffffffffff19166020820180517bffffffffffffffffffffffffffffffffffffffffffffffffffffffff83818316178352505050506200064060201b60201c565b50565b60008151905060006a636f6e736f6c652e6c6f679050602083016000808483855afa5050505050565b828054828255906000526020600020908101928215620006b6579160200282015b82811115620006b5578251829081620006a49190620009d0565b50916020019190600101906200068a565b5b509050620006c59190620006c9565b5090565b5b80821115620006ed5760008181620006e39190620006f1565b50600101620006ca565b5090565b508054620006ff90620007bf565b6000825580601f1062000713575062000734565b601f01602090049060005260206000209081019062000733919062000737565b5b50565b5b808211156200075257600081600090555060010162000738565b5090565b600081519050919050565b7f4e487b7100000000000000000000000000000000000000000000000000000000600052604160045260246000fd5b7f4e487b7100000000000000000000000000000000000000000000000000000000600052602260045260246000fd5b60006002820490506001821680620007d857607f821691505b602082108103620007ee57620007ed62000790565b5b50919050565b60008190508160005260206000209050919050565b60006020601f8301049050919050565b600082821b905092915050565b600060088302620008587fffffffffffffffffffffffffffffffffffffffffffffffffffffffffffffffff8262000819565b62000864868362000819565b95508019841693508086168417925050509392505050565b6000819050919050565b6000819050919050565b6000620008b1620008ab620008a5846200087c565b62000886565b6200087c565b9050919050565b6000819050919050565b620008cd8362000890565b620008e5620008dc82620008b8565b84845462000826565b825550505050565b600090565b620008fc620008ed565b62000909818484620008c2565b505050565b5b81811015620009315762000925600082620008f2565b6001810190506200090f565b5050565b601f82111562000980576200094a81620007f4565b620009558462000809565b8101602085101562000965578190505b6200097d620009748562000809565b8301826200090e565b50505b505050565b600082821c905092915050565b6000620009a56000198460080262000985565b1980831691505092915050565b6000620009c0838362000992565b9150826002028217905092915050565b620009db8262000756565b67ffffffffffffffff811115620009f757620009f662000761565b5b62000a038254620007bf565b62000a1082828562000935565b600060209050601f83116001811462000a48576000841562000a33578287015190505b62000a3f8582620009b2565b86555062000aaf565b601f19841662000a5886620007f4565b60005b8281101562000a825784890151825560018201915060208501945060208101905062000a5b565b8683101562000aa2578489015162000a9e601f89168262000992565b8355505b6001600288020188555050505b505050505050565b600082825260208201905092915050565b60005b8381101562000ae857808201518184015260208101905062000acb565b60008484015250505050565b6000601f19601f8301169050919050565b600062000b128262000756565b62000b1e818562000ab7565b935062000b3081856020860162000ac8565b62000b3b8162000af4565b840191505092915050565b6000602082019050818103600083015262000b62818462000b05565b905092915050565b6137458062000b7a6000396000f3fe608060405234801561001057600080fd5b506004361061010b5760003560e01c806370a08231116100a2578063b187301f11610071578063b187301f146102b6578063b88d4fde146102e6578063c575757a14610302578063c87b56dd14610332578063e985e9c5146103625761010b565b806370a0823114610242578063767dff711461027257806395d89b411461027c578063a22cb4651461029a5761010b565b806323b872dd116100de57806323b872dd146101aa5780632de38d68146101c657806342842e0e146101f65780636352211e146102125761010b565b806301ffc9a71461011057806306fdde0314610140578063081812fc1461015e578063095ea7b31461018e575b600080fd5b61012a60048036038101906101259190612043565b610392565b604051610137919061208b565b60405180910390f35b610148610474565b6040516101559190612136565b60405180910390f35b6101786004803603810190610173919061218e565b610506565b60405161018591906121fc565b60405180910390f35b6101a860048036038101906101a39190612243565b61054c565b005b6101c460048036038101906101bf9190612283565b610663565b005b6101e060048036038101906101db919061218e565b6106c3565b6040516101ed9190612136565b60405180910390f35b610210600480360381019061020b9190612283565b6107bb565b005b61022c6004803603810190610227919061218e565b6107db565b60405161023991906121fc565b60405180910390f35b61025c600480360381019061025791906122d6565b61088c565b6040516102699190612312565b60405180910390f35b61027a610943565b005b610284610af1565b6040516102919190612136565b60405180910390f35b6102b460048036038101906102af9190612359565b610b83565b005b6102d060048036038101906102cb919061218e565b610b99565b6040516102dd9190612136565b60405180910390f35b61030060048036038101906102fb91906124ce565b610c91565b005b61031c6004803603810190610317919061218e565b610cf3565b6040516103299190612136565b60405180910390f35b61034c6004803603810190610347919061218e565b610deb565b6040516103599190612136565b60405180910390f35b61037c60048036038101906103779190612551565b610efd565b604051610389919061208b565b60405180910390f35b60007f80ac58cd000000000000000000000000000000000000000000000000000000007bffffffffffffffffffffffffffffffffffffffffffffffffffffffff1916827bffffffffffffffffffffffffffffffffffffffffffffffffffffffff1916148061045d57507f5b5e139f000000000000000000000000000000000000000000000000000000007bffffffffffffffffffffffffffffffffffffffffffffffffffffffff1916827bffffffffffffffffffffffffffffffffffffffffffffffffffffffff1916145b8061046d575061046c8261102a565b5b9050919050565b606060008054610483906125c0565b80601f01602080910402602001604051908101604052809291908181526020018280546104af906125c0565b80156104fc5780601f106104d1576101008083540402835291602001916104fc565b820191906000526020600020905b8154815290600101906020018083116104df57829003601f168201915b5050505050905090565b600061051182611094565b6004600083815260200190815260200160002060009054906101000a900473ffffffffffffffffffffffffffffffffffffffff169050919050565b6000610557826107db565b90508073ffffffffffffffffffffffffffffffffffffffff168373ffffffffffffffffffffffffffffffffffffffff16036105c7576040517f08c379a00000000000000000000000000000000000000000000000000000000081526004016105be90612663565b60405180910390fd5b8073ffffffffffffffffffffffffffffffffffffffff166105e66110df565b73ffffffffffffffffffffffffffffffffffffffff16148061061557506106148161060f6110df565b610efd565b5b610654576040517f08c379a000000000000000000000000000000000000000000000000000000000815260040161064b906126f5565b60405180910390fd5b61065e83836110e7565b505050565b61067461066e6110df565b826111a0565b6106b3576040517f08c379a00000000000000000000000000000000000000000000000000000000081526004016106aa90612787565b60405180910390fd5b6106be838383611235565b505050565b606060006106f76106d38461149b565b6040516020016106e3919061282f565b6040516020818303038152906040526115fb565b90506009805490508161070a9190612880565b9050600981815481106107205761071f6128b1565b5b906000526020600020018054610735906125c0565b80601f0160208091040260200160405190810160405280929190818152602001828054610761906125c0565b80156107ae5780601f10610783576101008083540402835291602001916107ae565b820191906000526020600020905b81548152906001019060200180831161079157829003601f168201915b5050505050915050919050565b6107d683838360405180602001604052806000815250610c91565b505050565b6000806002600084815260200190815260200160002060009054906101000a900473ffffffffffffffffffffffffffffffffffffffff169050600073ffffffffffffffffffffffffffffffffffffffff168173ffffffffffffffffffffffffffffffffffffffff1603610883576040517f08c379a000000000000000000000000000000000000000000000000000000000815260040161087a9061292c565b60405180910390fd5b80915050919050565b60008073ffffffffffffffffffffffffffffffffffffffff168273ffffffffffffffffffffffffffffffffffffffff16036108fc576040517f08c379a00000000000000000000000000000000000000000000000000000000081526004016108f3906129be565b60405180910390fd5b600360008373ffffffffffffffffffffffffffffffffffffffff1673ffffffffffffffffffffffffffffffffffffffff168152602001908152602001600020549050919050565b600061094f600761162e565b9050600061095c826106c3565b9050600061096983610b99565b9050600061097684610cf3565b9050600083838360405160200161098f939291906129de565b604051602081830303815290604052905060006008826040516020016109b6929190612af3565b604051602081830303815290604052905060006109fb836109d68461163c565b6040516020016109e7929190612c78565b60405160208183030381529060405261163c565b9050600081604051602001610a109190612d09565b6040516020818303038152906040529050610a5f6040518060400160405280601581526020017f0a2d2d2d2d2d2d2d2d2d2d2d2d2d2d2d2d2d2d2d2d0000000000000000000000815250610f91565b610a6881610f91565b610aa66040518060400160405280601581526020017f2d2d2d2d2d2d2d2d2d2d2d2d2d2d2d2d2d2d2d2d0a0000000000000000000000815250610f91565b610ab033896117d3565b610aba88826117f1565b610ac4600761185e565b610ae76040518060600160405280602581526020016136ab602591398933611874565b5050505050505050565b606060018054610b00906125c0565b80601f0160208091040260200160405190810160405280929190818152602001828054610b2c906125c0565b8015610b795780601f10610b4e57610100808354040283529160200191610b79565b820191906000526020600020905b815481529060010190602001808311610b5c57829003601f168201915b5050505050905090565b610b95610b8e6110df565b8383611913565b5050565b60606000610bcd610ba98461149b565b604051602001610bb99190612d77565b6040516020818303038152906040526115fb565b9050600a8054905081610be09190612880565b9050600a8181548110610bf657610bf56128b1565b5b906000526020600020018054610c0b906125c0565b80601f0160208091040260200160405190810160405280929190818152602001828054610c37906125c0565b8015610c845780601f10610c5957610100808354040283529160200191610c84565b820191906000526020600020905b815481529060010190602001808311610c6757829003601f168201915b5050505050915050919050565b610ca2610c9c6110df565b836111a0565b610ce1576040517f08c379a0000000000000000000000000000000000000000000000000000000008152600401610cd890612787565b60405180910390fd5b610ced84848484611a7f565b50505050565b60606000610d27610d038461149b565b604051602001610d139190612de5565b6040516020818303038152906040526115fb565b9050600b8054905081610d3a9190612880565b9050600b8181548110610d5057610d4f6128b1565b5b906000526020600020018054610d65906125c0565b80601f0160208091040260200160405190810160405280929190818152602001828054610d91906125c0565b8015610dde5780601f10610db357610100808354040283529160200191610dde565b820191906000526020600020905b815481529060010190602001808311610dc157829003601f168201915b5050505050915050919050565b6060610df682611094565b6000600660008481526020019081526020016000208054610e16906125c0565b80601f0160208091040260200160405190810160405280929190818152602001828054610e42906125c0565b8015610e8f5780601f10610e6457610100808354040283529160200191610e8f565b820191906000526020600020905b815481529060010190602001808311610e7257829003601f168201915b505050505090506000610ea0611adb565b90506000815103610eb5578192505050610ef8565b600082511115610eea578082604051602001610ed2929190612e07565b60405160208183030381529060405292505050610ef8565b610ef384611af2565b925050505b919050565b6000600560008473ffffffffffffffffffffffffffffffffffffffff1673ffffffffffffffffffffffffffffffffffffffff16815260200190815260200160002060008373ffffffffffffffffffffffffffffffffffffffff1673ffffffffffffffffffffffffffffffffffffffff16815260200190815260200160002060009054906101000a900460ff16905092915050565b61102781604051602401610fa59190612136565b6040516020818303038152906040527f41304fac000000000000000000000000000000000000000000000000000000007bffffffffffffffffffffffffffffffffffffffffffffffffffffffff19166020820180517bffffffffffffffffffffffffffffffffffffffffffffffffffffffff8381831617835250505050611b5a565b50565b60007f01ffc9a7000000000000000000000000000000000000000000000000000000007bffffffffffffffffffffffffffffffffffffffffffffffffffffffff1916827bffffffffffffffffffffffffffffffffffffffffffffffffffffffff1916149050919050565b61109d81611b83565b6110dc576040517f08c379a00000000000000000000000000000000000000000000000000000000081526004016110d39061292c565b60405180910390fd5b50565b600033905090565b816004600083815260200190815260200160002060006101000a81548173ffffffffffffffffffffffffffffffffffffffff021916908373ffffffffffffffffffffffffffffffffffffffff160217905550808273ffffffffffffffffffffffffffffffffffffffff1661115a836107db565b73ffffffffffffffffffffffffffffffffffffffff167f8c5be1e5ebec7d5bd14f71427d1e84f3dd0314c0f7b2291e5b200ac8c7c3b92560405160405180910390a45050565b6000806111ac836107db565b90508073ffffffffffffffffffffffffffffffffffffffff168473ffffffffffffffffffffffffffffffffffffffff1614806111ee57506111ed8185610efd565b5b8061122c57508373ffffffffffffffffffffffffffffffffffffffff1661121484610506565b73ffffffffffffffffffffffffffffffffffffffff16145b91505092915050565b8273ffffffffffffffffffffffffffffffffffffffff16611255826107db565b73ffffffffffffffffffffffffffffffffffffffff16146112ab576040517f08c379a00000000000000000000000000000000000000000000000000000000081526004016112a290612e9d565b60405180910390fd5b600073ffffffffffffffffffffffffffffffffffffffff168273ffffffffffffffffffffffffffffffffffffffff160361131a576040517f08c379a000000000000000000000000000000000000000000000000000000000815260040161131190612f2f565b60405180910390fd5b611325838383611bef565b6113306000826110e7565b6001600360008573ffffffffffffffffffffffffffffffffffffffff1673ffffffffffffffffffffffffffffffffffffffff16815260200190815260200160002060008282546113809190612f7e565b925050819055506001600360008473ffffffffffffffffffffffffffffffffffffffff1673ffffffffffffffffffffffffffffffffffffffff16815260200190815260200160002060008282546113d79190612fb2565b92505081905550816002600083815260200190815260200160002060006101000a81548173ffffffffffffffffffffffffffffffffffffffff021916908373ffffffffffffffffffffffffffffffffffffffff160217905550808273ffffffffffffffffffffffffffffffffffffffff168473ffffffffffffffffffffffffffffffffffffffff167fddf252ad1be2c89b69c2b068fc378daa952ba7f163c4a11628f55a4df523b3ef60405160405180910390a4611496838383611bf4565b505050565b6060600082036114e2576040518060400160405280600181526020017f300000000000000000000000000000000000000000000000000000000000000081525090506115f6565b600082905060005b600082146115145780806114fd90612fe6565b915050600a8261150d919061302e565b91506114ea565b60008167ffffffffffffffff8111156115305761152f6123a3565b5b6040519080825280601f01601f1916602001820160405280156115625781602001600182028036833780820191505090505b5090505b600085146115ef5760018261157b9190612f7e565b9150600a8561158a9190612880565b60306115969190612fb2565b60f81b8183815181106115ac576115ab6128b1565b5b60200101907effffffffffffffffffffffffffffffffffffffffffffffffffffffffffffff1916908160001a905350600a856115e8919061302e565b9450611566565b8093505050505b919050565b60008160405160200161160e919061305f565b6040516020818303038152906040528051906020012060001c9050919050565b600081600001549050919050565b60606000825190506000810361166457604051806020016040528060008152509150506117ce565b600060036002836116759190612fb2565b61167f919061302e565b600461168b9190613076565b9050600060208261169c9190612fb2565b67ffffffffffffffff8111156116b5576116b46123a3565b5b6040519080825280601f01601f1916602001820160405280156116e75781602001600182028036833780820191505090505b50905060006040518060600160405280604081526020016136d0604091399050600181016020830160005b8681101561178b5760038101905062ffffff818a015116603f8160121c168401518060081b905060ff603f83600c1c1686015116810190508060081b905060ff603f8360061c1686015116810190508060081b905060ff603f831686015116810190508060e01b90508084526004840193505050611712565b5060038606600181146117a557600281146117b5576117c0565b613d3d60f01b60028303526117c0565b603d60f81b60018303525b508484525050819450505050505b919050565b6117ed828260405180602001604052806000815250611bf9565b5050565b6117fa82611b83565b611839576040517f08c379a00000000000000000000000000000000000000000000000000000000081526004016118309061312a565b60405180910390fd5b8060066000848152602001908152602001600020908161185991906132e1565b505050565b6001816000016000828254019250508190555050565b61190e83838360405160240161188c939291906133b3565b6040516020818303038152906040527f1c7ec448000000000000000000000000000000000000000000000000000000007bffffffffffffffffffffffffffffffffffffffffffffffffffffffff19166020820180517bffffffffffffffffffffffffffffffffffffffffffffffffffffffff8381831617835250505050611b5a565b505050565b8173ffffffffffffffffffffffffffffffffffffffff168373ffffffffffffffffffffffffffffffffffffffff1603611981576040517f08c379a00000000000000000000000000000000000000000000000000000000081526004016119789061343d565b60405180910390fd5b80600560008573ffffffffffffffffffffffffffffffffffffffff1673ffffffffffffffffffffffffffffffffffffffff16815260200190815260200160002060008473ffffffffffffffffffffffffffffffffffffffff1673ffffffffffffffffffffffffffffffffffffffff16815260200190815260200160002060006101000a81548160ff0219169083151502179055508173ffffffffffffffffffffffffffffffffffffffff168373ffffffffffffffffffffffffffffffffffffffff167f17307eab39ab6107e8899845ad3d59bd9653f200f220920489ca2b5937696c3183604051611a72919061208b565b60405180910390a3505050565b611a8a848484611235565b611a9684848484611c54565b611ad5576040517f08c379a0000000000000000000000000000000000000000000000000000000008152600401611acc906134cf565b60405180910390fd5b50505050565b606060405180602001604052806000815250905090565b6060611afd82611094565b6000611b07611adb565b90506000815111611b275760405180602001604052806000815250611b52565b80611b318461149b565b604051602001611b42929190612e07565b6040516020818303038152906040525b915050919050565b60008151905060006a636f6e736f6c652e6c6f679050602083016000808483855afa5050505050565b60008073ffffffffffffffffffffffffffffffffffffffff166002600084815260200190815260200160002060009054906101000a900473ffffffffffffffffffffffffffffffffffffffff1673ffffffffffffffffffffffffffffffffffffffff1614159050919050565b505050565b505050565b611c038383611ddb565b611c106000848484611c54565b611c4f576040517f08c379a0000000000000000000000000000000000000000000000000000000008152600401611c46906134cf565b60405180910390fd5b505050565b6000611c758473ffffffffffffffffffffffffffffffffffffffff16611fb4565b15611dce578373ffffffffffffffffffffffffffffffffffffffff1663150b7a02611c9e6110df565b8786866040518563ffffffff1660e01b8152600401611cc09493929190613544565b6020604051808303816000875af1925050508015611cfc57506040513d601f19601f82011682018060405250810190611cf991906135a5565b60015b611d7e573d8060008114611d2c576040519150601f19603f3d011682016040523d82523d6000602084013e611d31565b606091505b506000815103611d76576040517f08c379a0000000000000000000000000000000000000000000000000000000008152600401611d6d906134cf565b60405180910390fd5b805181602001fd5b63150b7a0260e01b7bffffffffffffffffffffffffffffffffffffffffffffffffffffffff1916817bffffffffffffffffffffffffffffffffffffffffffffffffffffffff191614915050611dd3565b600190505b949350505050565b600073ffffffffffffffffffffffffffffffffffffffff168273ffffffffffffffffffffffffffffffffffffffff1603611e4a576040517f08c379a0000000000000000000000000000000000000000000000000000000008152600401611e419061361e565b60405180910390fd5b611e5381611b83565b15611e93576040517f08c379a0000000000000000000000000000000000000000000000000000000008152600401611e8a9061368a565b60405180910390fd5b611e9f60008383611bef565b6001600360008473ffffffffffffffffffffffffffffffffffffffff1673ffffffffffffffffffffffffffffffffffffffff1681526020019081526020016000206000828254611eef9190612fb2565b92505081905550816002600083815260200190815260200160002060006101000a81548173ffffffffffffffffffffffffffffffffffffffff021916908373ffffffffffffffffffffffffffffffffffffffff160217905550808273ffffffffffffffffffffffffffffffffffffffff16600073ffffffffffffffffffffffffffffffffffffffff167fddf252ad1be2c89b69c2b068fc378daa952ba7f163c4a11628f55a4df523b3ef60405160405180910390a4611fb060008383611bf4565b5050565b6000808273ffffffffffffffffffffffffffffffffffffffff163b119050919050565b6000604051905090565b600080fd5b600080fd5b60007fffffffff0000000000000000000000000000000000000000000000000000000082169050919050565b61202081611feb565b811461202b57600080fd5b50565b60008135905061203d81612017565b92915050565b60006020828403121561205957612058611fe1565b5b60006120678482850161202e565b91505092915050565b60008115159050919050565b61208581612070565b82525050565b60006020820190506120a0600083018461207c565b92915050565b600081519050919050565b600082825260208201905092915050565b60005b838110156120e05780820151818401526020810190506120c5565b60008484015250505050565b6000601f19601f8301169050919050565b6000612108826120a6565b61211281856120b1565b93506121228185602086016120c2565b61212b816120ec565b840191505092915050565b6000602082019050818103600083015261215081846120fd565b905092915050565b6000819050919050565b61216b81612158565b811461217657600080fd5b50565b60008135905061218881612162565b92915050565b6000602082840312156121a4576121a3611fe1565b5b60006121b284828501612179565b91505092915050565b600073ffffffffffffffffffffffffffffffffffffffff82169050919050565b60006121e6826121bb565b9050919050565b6121f6816121db565b82525050565b600060208201905061221160008301846121ed565b92915050565b612220816121db565b811461222b57600080fd5b50565b60008135905061223d81612217565b92915050565b6000806040838503121561225a57612259611fe1565b5b60006122688582860161222e565b925050602061227985828601612179565b9150509250929050565b60008060006060848603121561229c5761229b611fe1565b5b60006122aa8682870161222e565b93505060206122bb8682870161222e565b92505060406122cc86828701612179565b9150509250925092565b6000602082840312156122ec576122eb611fe1565b5b60006122fa8482850161222e565b91505092915050565b61230c81612158565b82525050565b60006020820190506123276000830184612303565b92915050565b61233681612070565b811461234157600080fd5b50565b6000813590506123538161232d565b92915050565b600080604083850312156123705761236f611fe1565b5b600061237e8582860161222e565b925050602061238f85828601612344565b9150509250929050565b600080fd5b600080fd5b7f4e487b7100000000000000000000000000000000000000000000000000000000600052604160045260246000fd5b6123db826120ec565b810181811067ffffffffffffffff821117156123fa576123f96123a3565b5b80604052505050565b600061240d611fd7565b905061241982826123d2565b919050565b600067ffffffffffffffff821115612439576124386123a3565b5b612442826120ec565b9050602081019050919050565b82818337600083830152505050565b600061247161246c8461241e565b612403565b90508281526020810184848401111561248d5761248c61239e565b5b61249884828561244f565b509392505050565b600082601f8301126124b5576124b4612399565b5b81356124c584826020860161245e565b91505092915050565b600080600080608085870312156124e8576124e7611fe1565b5b60006124f68782880161222e565b94505060206125078782880161222e565b935050604061251887828801612179565b925050606085013567ffffffffffffffff81111561253957612538611fe6565b5b612545878288016124a0565b91505092959194509250565b6000806040838503121561256857612567611fe1565b5b60006125768582860161222e565b92505060206125878582860161222e565b9150509250929050565b7f4e487b7100000000000000000000000000000000000000000000000000000000600052602260045260246000fd5b600060028204905060018216806125d857607f821691505b6020821081036125eb576125ea612591565b5b50919050565b7f4552433732313a20617070726f76616c20746f2063757272656e74206f776e6560008201527f7200000000000000000000000000000000000000000000000000000000000000602082015250565b600061264d6021836120b1565b9150612658826125f1565b604082019050919050565b6000602082019050818103600083015261267c81612640565b9050919050565b7f4552433732313a20617070726f76652063616c6c6572206973206e6f7420746f60008201527f6b656e206f776e6572206e6f7220617070726f76656420666f7220616c6c0000602082015250565b60006126df603e836120b1565b91506126ea82612683565b604082019050919050565b6000602082019050818103600083015261270e816126d2565b9050919050565b7f4552433732313a2063616c6c6572206973206e6f7420746f6b656e206f776e6560008201527f72206e6f7220617070726f766564000000000000000000000000000000000000602082015250565b6000612771602e836120b1565b915061277c82612715565b604082019050919050565b600060208201905081810360008301526127a081612764565b9050919050565b600081905092915050565b7f46495253545f574f524400000000000000000000000000000000000000000000600082015250565b60006127e8600a836127a7565b91506127f3826127b2565b600a82019050919050565b6000612809826120a6565b61281381856127a7565b93506128238185602086016120c2565b80840191505092915050565b600061283a826127db565b915061284682846127fe565b915081905092915050565b7f4e487b7100000000000000000000000000000000000000000000000000000000600052601260045260246000fd5b600061288b82612158565b915061289683612158565b9250826128a6576128a5612851565b5b828206905092915050565b7f4e487b7100000000000000000000000000000000000000000000000000000000600052603260045260246000fd5b7f4552433732313a20696e76616c696420746f6b656e2049440000000000000000600082015250565b60006129166018836120b1565b9150612921826128e0565b602082019050919050565b6000602082019050818103600083015261294581612909565b9050919050565b7f4552433732313a2061646472657373207a65726f206973206e6f74206120766160008201527f6c6964206f776e65720000000000000000000000000000000000000000000000602082015250565b60006129a86029836120b1565b91506129b38261294c565b604082019050919050565b600060208201905081810360008301526129d78161299b565b9050919050565b60006129ea82866127fe565b91506129f682856127fe565b9150612a0282846127fe565b9150819050949350505050565b60008190508160005260206000209050919050565b60008154612a31816125c0565b612a3b81866127a7565b94506001821660008114612a565760018114612a6b57612a9e565b60ff1983168652811515820286019350612a9e565b612a7485612a0f565b60005b83811015612a9657815481890152600182019150602081019050612a77565b838801955050505b50505092915050565b7f3c2f746578743e3c2f7376673e00000000000000000000000000000000000000600082015250565b6000612add600d836127a7565b9150612ae882612aa7565b600d82019050919050565b6000612aff8285612a24565b9150612b0b82846127fe565b9150612b1682612ad0565b91508190509392505050565b7f7b226e616d65223a202200000000000000000000000000000000000000000000600082015250565b6000612b58600a836127a7565b9150612b6382612b22565b600a82019050919050565b7f222c20226465736372697074696f6e223a20224120686967686c79206163636c60008201527f61696d656420636f6c6c656374696f6e206f6620737175617265732e222c202260208201527f696d616765223a2022646174613a696d6167652f7376672b786d6c3b6261736560408201527f36342c0000000000000000000000000000000000000000000000000000000000606082015250565b6000612c166063836127a7565b9150612c2182612b6e565b606382019050919050565b7f227d000000000000000000000000000000000000000000000000000000000000600082015250565b6000612c626002836127a7565b9150612c6d82612c2c565b600282019050919050565b6000612c8382612b4b565b9150612c8f82856127fe565b9150612c9a82612c09565b9150612ca682846127fe565b9150612cb182612c55565b91508190509392505050565b7f646174613a6170706c69636174696f6e2f6a736f6e3b6261736536342c000000600082015250565b6000612cf3601d836127a7565b9150612cfe82612cbd565b601d82019050919050565b6000612d1482612ce6565b9150612d2082846127fe565b915081905092915050565b7f5345434f4e445f574f5244000000000000000000000000000000000000000000600082015250565b6000612d61600b836127a7565b9150612d6c82612d2b565b600b82019050919050565b6000612d8282612d54565b9150612d8e82846127fe565b915081905092915050565b7f54484952445f574f524400000000000000000000000000000000000000000000600082015250565b6000612dcf600a836127a7565b9150612dda82612d99565b600a82019050919050565b6000612df082612dc2565b9150612dfc82846127fe565b915081905092915050565b6000612e1382856127fe565b9150612e1f82846127fe565b91508190509392505050565b7f4552433732313a207472616e736665722066726f6d20696e636f72726563742060008201527f6f776e6572000000000000000000000000000000000000000000000000000000602082015250565b6000612e876025836120b1565b9150612e9282612e2b565b604082019050919050565b60006020820190508181036000830152612eb681612e7a565b9050919050565b7f4552433732313a207472616e7366657220746f20746865207a65726f2061646460008201527f7265737300000000000000000000000000000000000000000000000000000000602082015250565b6000612f196024836120b1565b9150612f2482612ebd565b604082019050919050565b60006020820190508181036000830152612f4881612f0c565b9050919050565b7f4e487b7100000000000000000000000000000000000000000000000000000000600052601160045260246000fd5b6000612f8982612158565b9150612f9483612158565b9250828203905081811115612fac57612fab612f4f565b5b92915050565b6000612fbd82612158565b9150612fc883612158565b9250828201905080821115612fe057612fdf612f4f565b5b92915050565b6000612ff182612158565b91507fffffffffffffffffffffffffffffffffffffffffffffffffffffffffffffffff820361302357613022612f4f565b5b600182019050919050565b600061303982612158565b915061304483612158565b92508261305457613053612851565b5b828204905092915050565b600061306b82846127fe565b915081905092915050565b600061308182612158565b915061308c83612158565b925082820261309a81612158565b915082820484148315176130b1576130b0612f4f565b5b5092915050565b7f45524337323155524953746f726167653a2055524920736574206f66206e6f6e60008201527f6578697374656e7420746f6b656e000000000000000000000000000000000000602082015250565b6000613114602e836120b1565b915061311f826130b8565b604082019050919050565b6000602082019050818103600083015261314381613107565b9050919050565b60006020601f8301049050919050565b600082821b905092915050565b6000600883026131977fffffffffffffffffffffffffffffffffffffffffffffffffffffffffffffffff8261315a565b6131a1868361315a565b95508019841693508086168417925050509392505050565b6000819050919050565b60006131de6131d96131d484612158565b6131b9565b612158565b9050919050565b6000819050919050565b6131f8836131c3565b61320c613204826131e5565b848454613167565b825550505050565b600090565b613221613214565b61322c8184846131ef565b505050565b5b8181101561325057613245600082613219565b600181019050613232565b5050565b601f8211156132955761326681612a0f565b61326f8461314a565b8101602085101561327e578190505b61329261328a8561314a565b830182613231565b50505b505050565b600082821c905092915050565b60006132b86000198460080261329a565b1980831691505092915050565b60006132d183836132a7565b9150826002028217905092915050565b6132ea826120a6565b67ffffffffffffffff811115613303576133026123a3565b5b61330d82546125c0565b613318828285613254565b600060209050601f83116001811461334b5760008415613339578287015190505b61334385826132c5565b8655506133ab565b601f19841661335986612a0f565b60005b828110156133815784890151825560018201915060208501945060208101905061335c565b8683101561339e578489015161339a601f8916826132a7565b8355505b6001600288020188555050505b505050505050565b600060608201905081810360008301526133cd81866120fd565b90506133dc6020830185612303565b6133e960408301846121ed565b949350505050565b7f4552433732313a20617070726f766520746f2063616c6c657200000000000000600082015250565b60006134276019836120b1565b9150613432826133f1565b602082019050919050565b600060208201905081810360008301526134568161341a565b9050919050565b7f4552433732313a207472616e7366657220746f206e6f6e20455243373231526560008201527f63656976657220696d706c656d656e7465720000000000000000000000000000602082015250565b60006134b96032836120b1565b91506134c48261345d565b604082019050919050565b600060208201905081810360008301526134e8816134ac565b9050919050565b600081519050919050565b600082825260208201905092915050565b6000613516826134ef565b61352081856134fa565b93506135308185602086016120c2565b613539816120ec565b840191505092915050565b600060808201905061355960008301876121ed565b61356660208301866121ed565b6135736040830185612303565b8181036060830152613585818461350b565b905095945050505050565b60008151905061359f81612017565b92915050565b6000602082840312156135bb576135ba611fe1565b5b60006135c984828501613590565b91505092915050565b7f4552433732313a206d696e7420746f20746865207a65726f2061646472657373600082015250565b60006136086020836120b1565b9150613613826135d2565b602082019050919050565b60006020820190508181036000830152613637816135fb565b9050919050565b7f4552433732313a20746f6b656e20616c7265616479206d696e74656400000000600082015250565b6000613674601c836120b1565b915061367f8261363e565b602082019050919050565b600060208201905081810360008301526136a381613667565b905091905056fe416e204e465420772f20494420257320686173206265656e206d696e74656420746f2025734142434445464748494a4b4c4d4e4f505152535455565758595a6162636465666768696a6b6c6d6e6f707172737475767778797a303132333435363738392b2fa2646970667358221220590a0c33a93364f86654cc2b6e4bb53dd100e572a4b3801f4e01d07e6ffc91c264736f6c634300081100333c73766720786d6c6e733d27687474703a2f2f7777772e77332e6f72672f323030302f73766727207072657365727665417370656374526174696f3d27784d696e594d696e206d656574272076696577426f783d273020302033353020333530273e3c7374796c653e2e62617365207b2066696c6c3a2077686974653b20666f6e742d66616d696c793a2073657269663b20666f6e742d73697a653a20323470783b207d3c2f7374796c653e3c726563742077696474683d273130302527206865696768743d2731303025272066696c6c3d27626c61636b27202f3e3c7465787420783d273530252720793d273530252720636c6173733d27626173652720646f6d696e616e742d626173656c696e653d276d6964646c652720746578742d616e63686f723d276d6964646c65273e",
  "linkReferences": {},
  "deployedLinkReferences": {}
}